{
  "_format": "hh-sol-artifact-1",
  "contractName": "VerifierContract",
  "sourceName": "contracts/VerifierContract.sol",
  "abi": [
    {
      "anonymous": false,
      "inputs": [
        {
          "indexed": true,
          "internalType": "bytes32",
          "name": "decisionId",
          "type": "bytes32"
        },
        {
          "indexed": true,
          "internalType": "address",
          "name": "user",
          "type": "address"
        },
        {
          "indexed": false,
          "internalType": "string",
          "name": "symbol",
          "type": "string"
        },
        {
          "indexed": false,
          "internalType": "string",
          "name": "signal",
          "type": "string"
        },
        {
          "indexed": false,
          "internalType": "bool",
          "name": "valid",
          "type": "bool"
        },
        {
          "indexed": false,
          "internalType": "uint256",
          "name": "timestamp",
          "type": "uint256"
        }
      ],
      "name": "DecisionVerified",
      "type": "event"
    },
    {
      "anonymous": false,
      "inputs": [
        {
          "indexed": true,
          "internalType": "bytes32",
          "name": "decisionId",
          "type": "bytes32"
        },
        {
          "indexed": true,
          "internalType": "address",
          "name": "user",
          "type": "address"
        },
        {
          "indexed": false,
          "internalType": "string",
          "name": "reason",
          "type": "string"
        },
        {
          "indexed": false,
          "internalType": "uint256",
          "name": "timestamp",
          "type": "uint256"
        }
      ],
      "name": "VerificationFailed",
      "type": "event"
    },
    {
      "inputs": [
        {
          "internalType": "string[]",
          "name": "symbols",
          "type": "string[]"
        },
        {
          "internalType": "string[]",
          "name": "signals",
          "type": "string[]"
        },
        {
          "internalType": "bytes32[]",
          "name": "dataHashes",
          "type": "bytes32[]"
        },
        {
          "internalType": "bytes32[]",
          "name": "fdcProofs",
          "type": "bytes32[]"
        }
      ],
      "name": "batchVerifyDecisions",
      "outputs": [
        {
          "internalType": "bytes32[]",
          "name": "decisionIds",
          "type": "bytes32[]"
        },
        {
          "internalType": "bool[]",
          "name": "validResults",
          "type": "bool[]"
        }
      ],
      "stateMutability": "nonpayable",
      "type": "function"
    },
    {
      "inputs": [
        {
          "internalType": "bytes32",
          "name": "",
          "type": "bytes32"
        }
      ],
      "name": "decisions",
      "outputs": [
        {
          "internalType": "string",
          "name": "symbol",
          "type": "string"
        },
        {
          "internalType": "string",
          "name": "signal",
          "type": "string"
        },
        {
          "internalType": "bytes32",
          "name": "dataHash",
          "type": "bytes32"
        },
        {
          "internalType": "bytes32",
          "name": "fdcProof",
          "type": "bytes32"
        },
        {
          "internalType": "uint256",
          "name": "timestamp",
          "type": "uint256"
        },
        {
          "internalType": "bool",
          "name": "valid",
          "type": "bool"
        },
        {
          "internalType": "address",
          "name": "user",
          "type": "address"
        }
      ],
      "stateMutability": "view",
      "type": "function"
    },
    {
      "inputs": [],
      "name": "emergencyStop",
      "outputs": [],
      "stateMutability": "nonpayable",
      "type": "function"
    },
    {
      "inputs": [
        {
          "internalType": "bytes32",
          "name": "decisionId",
          "type": "bytes32"
        }
      ],
      "name": "getDecision",
      "outputs": [
        {
          "components": [
            {
              "internalType": "string",
              "name": "symbol",
              "type": "string"
            },
            {
              "internalType": "string",
              "name": "signal",
              "type": "string"
            },
            {
              "internalType": "bytes32",
              "name": "dataHash",
              "type": "bytes32"
            },
            {
              "internalType": "bytes32",
              "name": "fdcProof",
              "type": "bytes32"
            },
            {
              "internalType": "uint256",
              "name": "timestamp",
              "type": "uint256"
            },
            {
              "internalType": "bool",
              "name": "valid",
              "type": "bool"
            },
            {
              "internalType": "address",
              "name": "user",
              "type": "address"
            }
          ],
          "internalType": "struct VerifierContract.VerifiedDecision",
          "name": "decision",
          "type": "tuple"
        }
      ],
      "stateMutability": "view",
      "type": "function"
    },
    {
      "inputs": [],
      "name": "getStatistics",
      "outputs": [
        {
          "internalType": "uint256",
          "name": "total",
          "type": "uint256"
        },
        {
          "internalType": "uint256",
          "name": "valid",
          "type": "uint256"
        },
        {
          "internalType": "uint256",
          "name": "invalid",
          "type": "uint256"
        },
        {
          "internalType": "uint256",
          "name": "successRate",
          "type": "uint256"
        }
      ],
      "stateMutability": "view",
      "type": "function"
    },
    {
      "inputs": [],
      "name": "invalidDecisions",
      "outputs": [
        {
          "internalType": "uint256",
          "name": "",
          "type": "uint256"
        }
      ],
      "stateMutability": "view",
      "type": "function"
    },
    {
      "inputs": [
        {
          "internalType": "bytes32",
          "name": "decisionId",
          "type": "bytes32"
        }
      ],
      "name": "isDecisionValid",
      "outputs": [
        {
          "internalType": "bool",
          "name": "",
          "type": "bool"
        }
      ],
      "stateMutability": "view",
      "type": "function"
    },
    {
      "inputs": [],
      "name": "totalDecisions",
      "outputs": [
        {
          "internalType": "uint256",
          "name": "",
          "type": "uint256"
        }
      ],
      "stateMutability": "view",
      "type": "function"
    },
    {
      "inputs": [
        {
          "internalType": "address",
          "name": "",
          "type": "address"
        }
      ],
      "name": "userDecisionCount",
      "outputs": [
        {
          "internalType": "uint256",
          "name": "",
          "type": "uint256"
        }
      ],
      "stateMutability": "view",
      "type": "function"
    },
    {
      "inputs": [],
      "name": "validDecisions",
      "outputs": [
        {
          "internalType": "uint256",
          "name": "",
          "type": "uint256"
        }
      ],
      "stateMutability": "view",
      "type": "function"
    },
    {
      "inputs": [
        {
          "internalType": "string",
          "name": "symbol",
          "type": "string"
        },
        {
          "internalType": "string",
          "name": "signal",
          "type": "string"
        },
        {
          "internalType": "bytes32",
          "name": "dataHash",
          "type": "bytes32"
        },
        {
          "internalType": "bytes32",
          "name": "fdcProof",
          "type": "bytes32"
        }
      ],
      "name": "verifyDecision",
      "outputs": [
        {
          "internalType": "bytes32",
          "name": "decisionId",
          "type": "bytes32"
        },
        {
          "internalType": "bool",
          "name": "isValid",
          "type": "bool"
        }
      ],
      "stateMutability": "nonpayable",
      "type": "function"
    }
  ],
  "bytecode": "0x608060405234801561001057600080fd5b50611078806100206000396000f3fe608060405234801561001057600080fd5b50600436106100a95760003560e01c8063372d6b2711610071578063372d6b271461014f5780633a354d131461017757806363a599a41461019f5780637cdf1c46146101b5578063d8c57892146101d6578063ebb0b88f146101f657600080fd5b8063058e07b2146100ae5780630c96a61a146100e15780630fd030d4146100ea5780631afd614a14610120578063309b3ec614610146575b600080fd5b6100ce6100bc36600461090c565b60016020526000908152604090205481565b6040519081526020015b60405180910390f35b6100ce60025481565b6101106100f836600461093c565b60009081526020819052604090206005015460ff1690565b60405190151581526020016100d8565b61013361012e36600461093c565b6101ff565b6040516100d897969594939291906109a5565b6100ce60045481565b610157610357565b6040805194855260208501939093529183015260608201526080016100d8565b61018a610185366004610ab7565b610390565b604080519283529015156020830152016100d8565b6101b3600060028190556003819055600455565b005b6101c86101c3366004610c3a565b61055d565b6040516100d8929190610ce7565b6101e96101e436600461093c565b61072b565b6040516100d89190610d64565b6100ce60035481565b60006020819052908152604090208054819061021a90610de7565b80601f016020809104026020016040519081016040528092919081815260200182805461024690610de7565b80156102935780601f1061026857610100808354040283529160200191610293565b820191906000526020600020905b81548152906001019060200180831161027657829003601f168201915b5050505050908060010180546102a890610de7565b80601f01602080910402602001604051908101604052809291908181526020018280546102d490610de7565b80156103215780601f106102f657610100808354040283529160200191610321565b820191906000526020600020905b81548152906001019060200180831161030457829003601f168201915b505050506002830154600384015460048501546005909501549394919390925060ff81169061010090046001600160a01b031687565b60025460035460045460008315610386578361037584612710610e37565b61037f9190610e4e565b905061038a565b5060005b90919293565b60008033868686426040516020016103ac959493929190610e70565b6040516020818303038152906040528051906020012091506103ce84846108e8565b6040805160e08101825288815260208082018990528183018890526060820187905242608083015283151560a08301523360c0830152600086815290819052919091208151929350909181906104249082610f1a565b50602082015160018201906104399082610f1a565b506040820151600280830191909155606083015160038301556080830151600483015560a08301516005909201805460c0909401516001600160a01b031661010002610100600160a81b0319931515939093166001600160a81b0319909416939093179190911790915580549060006104b183610fda565b90915550503360009081526001602052604081208054916104d183610fda565b919050555080156104f657600380549060006104ec83610fda565b919050555061050c565b6004805490600061050683610fda565b91905055505b336001600160a01b0316827f5af8699de594b14e4824dda79a57a1d8f1d43825d6b899e2c706527f18a4537d8888854260405161054c9493929190610ff3565b60405180910390a394509492505050565b60608084518651148015610572575083518551145b801561057f575082518451145b6105c85760405162461bcd60e51b8152602060048201526016602482015275082e4e4c2f240d8cadccee8d0e640dad2e6dac2e8c6d60531b604482015260640160405180910390fd5b85518067ffffffffffffffff8111156105e3576105e3610a00565b60405190808252806020026020018201604052801561060c578160200160208202803683370190505b5092508067ffffffffffffffff81111561062857610628610a00565b604051908082528060200260200182016040528015610651578160200160208202803683370190505b50915060005b81811015610720576106cf8882815181106106745761067461102c565b602002602001015188838151811061068e5761068e61102c565b60200260200101518884815181106106a8576106a861102c565b60200260200101518885815181106106c2576106c261102c565b6020026020010151610390565b8583815181106106e1576106e161102c565b602002602001018584815181106106fa576106fa61102c565b92151560209384029190910190920191909152528061071881610fda565b915050610657565b505094509492505050565b6040805160e081018252606080825260208201819052600092820183905281018290526080810182905260a0810182905260c081019190915260008281526020819052604090819020815160e0810190925280548290829061078c90610de7565b80601f01602080910402602001604051908101604052809291908181526020018280546107b890610de7565b80156108055780601f106107da57610100808354040283529160200191610805565b820191906000526020600020905b8154815290600101906020018083116107e857829003601f168201915b5050505050815260200160018201805461081e90610de7565b80601f016020809104026020016040519081016040528092919081815260200182805461084a90610de7565b80156108975780601f1061086c57610100808354040283529160200191610897565b820191906000526020600020905b81548152906001019060200180831161087a57829003601f168201915b505050918352505060028201546020820152600382015460408201526004820154606082015260059091015460ff81161515608083015261010090046001600160a01b031660a09091015292915050565b60008215806108f5575081155b1561090257506000610906565b5060015b92915050565b60006020828403121561091e57600080fd5b81356001600160a01b038116811461093557600080fd5b9392505050565b60006020828403121561094e57600080fd5b5035919050565b60005b83811015610970578181015183820152602001610958565b50506000910152565b60008151808452610991816020860160208601610955565b601f01601f19169290920160200192915050565b60e0815260006109b860e083018a610979565b82810360208401526109ca818a610979565b6040840198909852505060608101949094526080840192909252151560a08301526001600160a01b031660c09091015292915050565b634e487b7160e01b600052604160045260246000fd5b604051601f8201601f1916810167ffffffffffffffff81118282101715610a3f57610a3f610a00565b604052919050565b600082601f830112610a5857600080fd5b813567ffffffffffffffff811115610a7257610a72610a00565b610a85601f8201601f1916602001610a16565b818152846020838601011115610a9a57600080fd5b816020850160208301376000918101602001919091529392505050565b60008060008060808587031215610acd57600080fd5b843567ffffffffffffffff80821115610ae557600080fd5b610af188838901610a47565b95506020870135915080821115610b0757600080fd5b50610b1487828801610a47565b949794965050505060408301359260600135919050565b600067ffffffffffffffff821115610b4557610b45610a00565b5060051b60200190565b600082601f830112610b6057600080fd5b81356020610b75610b7083610b2b565b610a16565b82815260059290921b84018101918181019086841115610b9457600080fd5b8286015b84811015610bd457803567ffffffffffffffff811115610bb85760008081fd5b610bc68986838b0101610a47565b845250918301918301610b98565b509695505050505050565b600082601f830112610bf057600080fd5b81356020610c00610b7083610b2b565b82815260059290921b84018101918181019086841115610c1f57600080fd5b8286015b84811015610bd45780358352918301918301610c23565b60008060008060808587031215610c5057600080fd5b843567ffffffffffffffff80821115610c6857600080fd5b610c7488838901610b4f565b95506020870135915080821115610c8a57600080fd5b610c9688838901610b4f565b94506040870135915080821115610cac57600080fd5b610cb888838901610bdf565b93506060870135915080821115610cce57600080fd5b50610cdb87828801610bdf565b91505092959194509250565b604080825283519082018190526000906020906060840190828701845b82811015610d2057815184529284019290840190600101610d04565b5050508381038285015284518082528583019183019060005b81811015610d57578351151583529284019291840191600101610d39565b5090979650505050505050565b602081526000825160e06020840152610d81610100840182610979565b90506020840151601f19848303016040850152610d9e8282610979565b9150506040840151606084015260608401516080840152608084015160a084015260a0840151151560c084015260018060a01b0360c08501511660e08401528091505092915050565b600181811c90821680610dfb57607f821691505b602082108103610e1b57634e487b7160e01b600052602260045260246000fd5b50919050565b634e487b7160e01b600052601160045260246000fd5b808202811582820484141761090657610906610e21565b600082610e6b57634e487b7160e01b600052601260045260246000fd5b500490565b6bffffffffffffffffffffffff198660601b16815260008551610e9a816014850160208a01610955565b855190830190610eb1816014840160208a01610955565b016014810194909452505060348201526054019392505050565b601f821115610f1557600081815260208120601f850160051c81016020861015610ef25750805b601f850160051c820191505b81811015610f1157828155600101610efe565b5050505b505050565b815167ffffffffffffffff811115610f3457610f34610a00565b610f4881610f428454610de7565b84610ecb565b602080601f831160018114610f7d5760008415610f655750858301515b600019600386901b1c1916600185901b178555610f11565b600085815260208120601f198616915b82811015610fac57888601518255948401946001909101908401610f8d565b5085821015610fca5787850151600019600388901b60f8161c191681555b5050505050600190811b01905550565b600060018201610fec57610fec610e21565b5060010190565b6080815260006110066080830187610979565b82810360208401526110188187610979565b941515604084015250506060015292915050565b634e487b7160e01b600052603260045260246000fdfea264697066735822122093e45b833d49c19bf288b19dbf1290fb995ac6f93d40e855813084372fd113f764736f6c63430008140033",
  "linkReferences": {},
  "deployedLinkReferences": {}
}