{
  "_format": "hh-sol-artifact-1",
  "contractName": "VerifiedTradingEngine",
  "sourceName": "contracts/VerifiedTradingEngine.sol",
  "abi": [
    {
      "anonymous": false,
      "inputs": [
        {
          "indexed": true,
          "internalType": "bytes32",
          "name": "decisionId",
          "type": "bytes32"
        },
        {
          "indexed": true,
          "internalType": "address",
          "name": "user",
          "type": "address"
        },
        {
          "indexed": false,
          "internalType": "string",
          "name": "symbol",
          "type": "string"
        },
        {
          "indexed": false,
          "internalType": "string",
          "name": "recommendation",
          "type": "string"
        },
        {
          "indexed": false,
          "internalType": "bytes32",
          "name": "inputHash",
          "type": "bytes32"
        },
        {
          "indexed": false,
          "internalType": "bytes32",
          "name": "fdcProofHash",
          "type": "bytes32"
        },
        {
          "indexed": false,
          "internalType": "bool",
          "name": "verified",
          "type": "bool"
        },
        {
          "indexed": false,
          "internalType": "uint256",
          "name": "confidence",
          "type": "uint256"
        },
        {
          "indexed": false,
          "internalType": "uint256",
          "name": "timestamp",
          "type": "uint256"
        }
      ],
      "name": "DecisionVerified",
      "type": "event"
    },
    {
      "anonymous": false,
      "inputs": [
        {
          "indexed": true,
          "internalType": "bytes32",
          "name": "decisionId",
          "type": "bytes32"
        },
        {
          "indexed": false,
          "internalType": "string",
          "name": "symbol",
          "type": "string"
        },
        {
          "indexed": false,
          "internalType": "string",
          "name": "recommendation",
          "type": "string"
        },
        {
          "indexed": false,
          "internalType": "uint256",
          "name": "timestamp",
          "type": "uint256"
        }
      ],
      "name": "TradingExecuted",
      "type": "event"
    },
    {
      "inputs": [
        {
          "internalType": "bytes32",
          "name": "decisionId",
          "type": "bytes32"
        }
      ],
      "name": "canExecuteTrade",
      "outputs": [
        {
          "internalType": "bool",
          "name": "canExecute",
          "type": "bool"
        }
      ],
      "stateMutability": "view",
      "type": "function"
    },
    {
      "inputs": [
        {
          "internalType": "bytes32",
          "name": "",
          "type": "bytes32"
        }
      ],
      "name": "decisions",
      "outputs": [
        {
          "internalType": "string",
          "name": "symbol",
          "type": "string"
        },
        {
          "internalType": "string",
          "name": "recommendation",
          "type": "string"
        },
        {
          "internalType": "uint256",
          "name": "confidence",
          "type": "uint256"
        },
        {
          "internalType": "bytes32",
          "name": "inputHash",
          "type": "bytes32"
        },
        {
          "internalType": "bytes32",
          "name": "fdcProofHash",
          "type": "bytes32"
        },
        {
          "internalType": "bool",
          "name": "verified",
          "type": "bool"
        },
        {
          "internalType": "bool",
          "name": "executed",
          "type": "bool"
        },
        {
          "internalType": "uint256",
          "name": "timestamp",
          "type": "uint256"
        },
        {
          "internalType": "address",
          "name": "user",
          "type": "address"
        }
      ],
      "stateMutability": "view",
      "type": "function"
    },
    {
      "inputs": [
        {
          "internalType": "string",
          "name": "",
          "type": "string"
        }
      ],
      "name": "executedCount",
      "outputs": [
        {
          "internalType": "uint256",
          "name": "",
          "type": "uint256"
        }
      ],
      "stateMutability": "view",
      "type": "function"
    },
    {
      "inputs": [
        {
          "internalType": "bytes32",
          "name": "decisionId",
          "type": "bytes32"
        }
      ],
      "name": "getDecision",
      "outputs": [
        {
          "components": [
            {
              "internalType": "string",
              "name": "symbol",
              "type": "string"
            },
            {
              "internalType": "string",
              "name": "recommendation",
              "type": "string"
            },
            {
              "internalType": "uint256",
              "name": "confidence",
              "type": "uint256"
            },
            {
              "internalType": "bytes32",
              "name": "inputHash",
              "type": "bytes32"
            },
            {
              "internalType": "bytes32",
              "name": "fdcProofHash",
              "type": "bytes32"
            },
            {
              "internalType": "bool",
              "name": "verified",
              "type": "bool"
            },
            {
              "internalType": "bool",
              "name": "executed",
              "type": "bool"
            },
            {
              "internalType": "uint256",
              "name": "timestamp",
              "type": "uint256"
            },
            {
              "internalType": "address",
              "name": "user",
              "type": "address"
            }
          ],
          "internalType": "struct VerifiedTradingEngine.TradingDecision",
          "name": "",
          "type": "tuple"
        }
      ],
      "stateMutability": "view",
      "type": "function"
    },
    {
      "inputs": [],
      "name": "getOverallStats",
      "outputs": [
        {
          "internalType": "uint256",
          "name": "total",
          "type": "uint256"
        },
        {
          "internalType": "uint256",
          "name": "totalVerified",
          "type": "uint256"
        },
        {
          "internalType": "uint256",
          "name": "totalUnverified",
          "type": "uint256"
        },
        {
          "internalType": "uint256",
          "name": "totalExecuted",
          "type": "uint256"
        },
        {
          "internalType": "uint256",
          "name": "verificationRate",
          "type": "uint256"
        }
      ],
      "stateMutability": "view",
      "type": "function"
    },
    {
      "inputs": [
        {
          "internalType": "string",
          "name": "symbol",
          "type": "string"
        }
      ],
      "name": "getStats",
      "outputs": [
        {
          "internalType": "uint256",
          "name": "verified",
          "type": "uint256"
        },
        {
          "internalType": "uint256",
          "name": "unverified",
          "type": "uint256"
        },
        {
          "internalType": "uint256",
          "name": "executed",
          "type": "uint256"
        }
      ],
      "stateMutability": "view",
      "type": "function"
    },
    {
      "inputs": [
        {
          "internalType": "string",
          "name": "symbol",
          "type": "string"
        },
        {
          "internalType": "string",
          "name": "recommendation",
          "type": "string"
        },
        {
          "internalType": "uint256",
          "name": "confidence",
          "type": "uint256"
        },
        {
          "internalType": "bytes32",
          "name": "inputHash",
          "type": "bytes32"
        },
        {
          "internalType": "bytes32",
          "name": "fdcProofHash",
          "type": "bytes32"
        },
        {
          "internalType": "bool",
          "name": "verified",
          "type": "bool"
        }
      ],
      "name": "logVerifiedDecision",
      "outputs": [
        {
          "internalType": "bytes32",
          "name": "decisionId",
          "type": "bytes32"
        }
      ],
      "stateMutability": "nonpayable",
      "type": "function"
    },
    {
      "inputs": [
        {
          "internalType": "bytes32",
          "name": "decisionId",
          "type": "bytes32"
        }
      ],
      "name": "markExecuted",
      "outputs": [],
      "stateMutability": "nonpayable",
      "type": "function"
    },
    {
      "inputs": [],
      "name": "totalDecisions",
      "outputs": [
        {
          "internalType": "uint256",
          "name": "",
          "type": "uint256"
        }
      ],
      "stateMutability": "view",
      "type": "function"
    },
    {
      "inputs": [
        {
          "internalType": "string",
          "name": "",
          "type": "string"
        }
      ],
      "name": "unverifiedCount",
      "outputs": [
        {
          "internalType": "uint256",
          "name": "",
          "type": "uint256"
        }
      ],
      "stateMutability": "view",
      "type": "function"
    },
    {
      "inputs": [
        {
          "internalType": "address",
          "name": "",
          "type": "address"
        }
      ],
      "name": "userDecisionCount",
      "outputs": [
        {
          "internalType": "uint256",
          "name": "",
          "type": "uint256"
        }
      ],
      "stateMutability": "view",
      "type": "function"
    },
    {
      "inputs": [
        {
          "internalType": "string",
          "name": "",
          "type": "string"
        }
      ],
      "name": "verifiedCount",
      "outputs": [
        {
          "internalType": "uint256",
          "name": "",
          "type": "uint256"
        }
      ],
      "stateMutability": "view",
      "type": "function"
    }
  ],
  "bytecode": "0x608060405234801561001057600080fd5b50611288806100206000396000f3fe608060405234801561001057600080fd5b50600436106100b45760003560e01c8063725c62d211610071578063725c62d214610188578063ba580144146101b3578063cc41d952146101e3578063d8c57892146101f6578063f175963a14610216578063fa0ae7681461023957600080fd5b8063058e07b2146100b95780630c96a61a146100ec5780631afd614a146100f55780632a6439c21461011d5780635c371a5814610148578063665d4c6114610173575b600080fd5b6100d96100c7366004610bd2565b60046020526000908152604090205481565b6040519081526020015b60405180910390f35b6100d960055481565b610108610103366004610bfb565b610267565b6040516100e399989796959493929190610c64565b6100d961012b366004610d73565b805160208183018101805160038252928201919093012091525481565b6100d9610156366004610d73565b805160208183018101805160028252928201919093012091525481565b610186610181366004610bfb565b6103cf565b005b6100d9610196366004610d73565b805160208183018101805160018252928201919093012091525481565b6101bb610576565b604080519586526020860194909452928401919091526060830152608082015260a0016100e3565b6100d96101f1366004610db0565b61058f565b610209610204366004610bfb565b6107ad565b6040516100e39190610e49565b610229610224366004610bfb565b610994565b60405190151581526020016100e3565b61024c610247366004610d73565b610b63565b604080519384526020840192909252908201526060016100e3565b60006020819052908152604090208054819061028290610ef2565b80601f01602080910402602001604051908101604052809291908181526020018280546102ae90610ef2565b80156102fb5780601f106102d0576101008083540402835291602001916102fb565b820191906000526020600020905b8154815290600101906020018083116102de57829003601f168201915b50505050509080600101805461031090610ef2565b80601f016020809104026020016040519081016040528092919081815260200182805461033c90610ef2565b80156103895780601f1061035e57610100808354040283529160200191610389565b820191906000526020600020905b81548152906001019060200180831161036c57829003601f168201915b505050600284015460038501546004860154600587015460068801546007909801549697939692955090935060ff8082169361010090920416916001600160a01b031689565b600081815260208190526040902060068101546104335760405162461bcd60e51b815260206004820152601760248201527f4465636973696f6e20646f6573206e6f7420657869737400000000000000000060448201526064015b60405180910390fd5b600581015460ff166104925760405162461bcd60e51b815260206004820152602260248201527f43616e6e6f74206578656375746520756e76657269666965642064656369736960448201526137b760f11b606482015260840161042a565b6005810154610100900460ff16156104ec5760405162461bcd60e51b815260206004820152601960248201527f4465636973696f6e20616c726561647920657865637574656400000000000000604482015260640161042a565b60058101805461ff00191661010017905560405160039061050e908390610f2c565b908152604051908190036020019020805490600061052b83610fa2565b9190505550817f36553cb2e6aabc66115b714c746baa6534860b11e84610ba003a5c784bfa705982600001836001014260405161056a93929190611046565b60405180910390a25050565b60055460008080808415610588575060005b9091929394565b600033878786426040516020016105aa95949392919061107c565b60408051601f198184030181528282528051602091820120610120840183528a84528382018a9052838301899052606084018890526080840187905285151560a0850152600060c085018190524260e0860152336101008601528181529182905291902082519193509081906106209082611126565b50602082015160018201906106359082611126565b5060408201516002820155606082015160038201556080820151600482015560a08201516005808301805460c086015161ffff1990911693151561ff00191693909317610100931515840217905560e08401516006840155920151600790910180546001600160a01b0319166001600160a01b0390921691909117905580549060006106c083610fa2565b90915550503360009081526004602052604081208054916106e083610fa2565b91905055508115610722576001876040516106fb91906111e6565b908152604051908190036020019020805490600061071883610fa2565b9190505550610755565b60028760405161073291906111e6565b908152604051908190036020019020805490600061074f83610fa2565b91905055505b336001600160a01b0316817fcdbf7c1b866b37ef002c8415ad9122c0cca6135f31f3b213ebd5ab7f3845be9489898888888c4260405161079b9796959493929190611202565b60405180910390a39695505050505050565b6040805161012081018252606080825260208201819052600092820183905281018290526080810182905260a0810182905260c0810182905260e08101829052610100810191909152600082815260208190526040908190208151610120810190925280548290829061081f90610ef2565b80601f016020809104026020016040519081016040528092919081815260200182805461084b90610ef2565b80156108985780601f1061086d57610100808354040283529160200191610898565b820191906000526020600020905b81548152906001019060200180831161087b57829003601f168201915b505050505081526020016001820180546108b190610ef2565b80601f01602080910402602001604051908101604052809291908181526020018280546108dd90610ef2565b801561092a5780601f106108ff5761010080835404028352916020019161092a565b820191906000526020600020905b81548152906001019060200180831161090d57829003601f168201915b5050509183525050600282015460208201526003820154604082015260048201546060820152600582015460ff8082161515608084015261010090910416151560a0820152600682015460c08201526007909101546001600160a01b031660e09091015292915050565b600080600080848152602001908152602001600020604051806101200160405290816000820180546109c590610ef2565b80601f01602080910402602001604051908101604052809291908181526020018280546109f190610ef2565b8015610a3e5780601f10610a1357610100808354040283529160200191610a3e565b820191906000526020600020905b815481529060010190602001808311610a2157829003601f168201915b50505050508152602001600182018054610a5790610ef2565b80601f0160208091040260200160405190810160405280929190818152602001828054610a8390610ef2565b8015610ad05780601f10610aa557610100808354040283529160200191610ad0565b820191906000526020600020905b815481529060010190602001808311610ab357829003601f168201915b5050509183525050600282015460208201526003820154604082015260048201546060820152600582015460ff8082161515608084015261010090910416151560a080830191909152600683015460c08301526007909201546001600160a01b031660e0909101528101519091508015610b4c57508060c00151155b8015610b5c575060008160e00151115b9392505050565b6000806000600184604051610b7891906111e6565b908152602001604051809103902054600285604051610b9791906111e6565b908152602001604051809103902054600386604051610bb691906111e6565b9081526020016040518091039020549250925092509193909250565b600060208284031215610be457600080fd5b81356001600160a01b0381168114610b5c57600080fd5b600060208284031215610c0d57600080fd5b5035919050565b60005b83811015610c2f578181015183820152602001610c17565b50506000910152565b60008151808452610c50816020860160208601610c14565b601f01601f19169290920160200192915050565b6000610120808352610c788184018d610c38565b90508281036020840152610c8c818c610c38565b604084019a909a5250506060810196909652608086019490945291151560a0850152151560c084015260e08301526001600160a01b03166101009091015292915050565b634e487b7160e01b600052604160045260246000fd5b600082601f830112610cf757600080fd5b813567ffffffffffffffff80821115610d1257610d12610cd0565b604051601f8301601f19908116603f01168101908282118183101715610d3a57610d3a610cd0565b81604052838152866020858801011115610d5357600080fd5b836020870160208301376000602085830101528094505050505092915050565b600060208284031215610d8557600080fd5b813567ffffffffffffffff811115610d9c57600080fd5b610da884828501610ce6565b949350505050565b60008060008060008060c08789031215610dc957600080fd5b863567ffffffffffffffff80821115610de157600080fd5b610ded8a838b01610ce6565b97506020890135915080821115610e0357600080fd5b50610e1089828a01610ce6565b95505060408701359350606087013592506080870135915060a08701358015158114610e3b57600080fd5b809150509295509295509295565b6020815260008251610120806020850152610e68610140850183610c38565b91506020850151601f19858403016040860152610e858382610c38565b9250506040850151606085015260608501516080850152608085015160a085015260a0850151610eb960c086018215159052565b5060c085015180151560e08601525060e0850151610100858101919091528501516001600160a01b038116828601525090949350505050565b600181811c90821680610f0657607f821691505b602082108103610f2657634e487b7160e01b600052602260045260246000fd5b50919050565b6000808354610f3a81610ef2565b60018281168015610f525760018114610f6757610f96565b60ff1984168752821515830287019450610f96565b8760005260208060002060005b85811015610f8d5781548a820152908401908201610f74565b50505082870194505b50929695505050505050565b600060018201610fc257634e487b7160e01b600052601160045260246000fd5b5060010190565b60008154610fd681610ef2565b808552602060018381168015610ff3576001811461100d5761103b565b60ff1985168884015283151560051b88018301955061103b565b866000528260002060005b858110156110335781548a8201860152908301908401611018565b890184019650505b505050505092915050565b6060815260006110596060830186610fc9565b828103602084015261106b8186610fc9565b915050826040830152949350505050565b6bffffffffffffffffffffffff198660601b168152600085516110a6816014850160208a01610c14565b8551908301906110bd816014840160208a01610c14565b016014810194909452505060348201526054019392505050565b601f82111561112157600081815260208120601f850160051c810160208610156110fe5750805b601f850160051c820191505b8181101561111d5782815560010161110a565b5050505b505050565b815167ffffffffffffffff81111561114057611140610cd0565b6111548161114e8454610ef2565b846110d7565b602080601f83116001811461118957600084156111715750858301515b600019600386901b1c1916600185901b17855561111d565b600085815260208120601f198616915b828110156111b857888601518255948401946001909101908401611199565b50858210156111d65787850151600019600388901b60f8161c191681555b5050505050600190811b01905550565b600082516111f8818460208701610c14565b9190910192915050565b60e08152600061121560e083018a610c38565b8281036020840152611227818a610c38565b604084019890985250506060810194909452911515608084015260a083015260c0909101529291505056fea2646970667358221220b5a25bda65e4235dc559c94334b690e747b9d055e32ecc98d569c117f74a90a864736f6c63430008140033",
  "linkReferences": {},
  "deployedLinkReferences": {}
}